S01700004763634170706C69636174696F6E312E737265635B
S11300000C9434000C943E000C943E000C943E007E
S11300100C943E000C943E000C943E000C943E0064
S11300200C943E000C943E000C943E000C943E0054
S11300300C943E000C943E000C943E000C943E0044
S11300400C943E000C943E000C943E000C943E0034
S11300500C943E000C943E000C943E000C943E0024
S11300600C943E000C943E0011241FBECFEFD8E048
S1130070DEBFCDBF0E945A000C945F000C940000B8
S113008020E015C03BB181E090E0022E02C0880F51
S1130090991F0A94E2F783278BB93FEF85EA9EE024
S11300A0315080409040E1F700C000002F5F2830BD
S11300B048F3E6CF8FEF8AB91BB80E944000F8944A
S10500C0FFCF6C
S9030000FC
